S0130000636F756E746572302D39392E7372656342
S11300000C942A000C9447000C9447000C9447006D
S11300100C9447000C9447000C9447000C94470040
S11300200C9447000C9447000C9447000C94470030
S11300300C9447000C9447000C9447000C94470020
S11300400C9447000C9447000C9447000C94470010
S11300500C94470011241FBECFE5D8E0DEBFCDBF0E
S113006010E0A0E6B0E0E6EEF1E002C005900D92EB
S1130070A036B107D9F710E0A0E6B0E001C01D92A8
S1130080A236B107E1F70E94A1000C94F1000C9490
S11300900000882329F4C098C198C298C498089590
S11300A0813029F4C09AC198C298C49808958230C6
S11300B029F4C098C19AC298C4980895833029F449
S11300C0C09AC19AC298C4980895843029F4C098FB
S11300D0C198C29AC4980895853029F4C09AC198E9
S11300E0C29AC4980895863029F4C098C19AC29AD5
S11300F0C4980895873029F4C09AC19AC29AC498C2
S11301000895883029F4C098C198C298C49A089573
S1130110893021F4C09AC198C298C49A089521E004
S113012030E0062E02C0220F331F0A94E2F790E05B
S113013028233923C90102C0959587956A95E2F76A
S1130140089587B3876787BBBB98C59AC69A0F2E55
S1130150FAE0EF2EFF24F02D1AE086B363E00E944C
S11301608F0080936100813039F48091600084367F
S113017018F48F5F80936000E70180916000612F25
S11301800E94E500892F0E944900C59A8FE39CE9EB
S11301900197F1F700C00000C59880916000612FBD
S11301A00E94E5000E944900C69A8FE39CE90197EA
S11301B0F1F700C00000C6982197F9F6809160001D
S11301C0843658F210926000C8CF991B79E004C0BD
S11301D0991F961708F0961B881F7A95C9F7809582
S10901E00895F894FFCF1E
S9030000FC
